:100000000C9434000C9451000C9451000C94510049
:100010000C9451000C9451000C9451000C9451001C
:100020000C9451000C9451000C9451000C9451000C
:100030000C9451000C9451000C9451000C945100FC
:100040000C9477000C9451000C9451000C945100C6
:100050000C9451000C9451000C9451000C945100DC
:100060000C9451000C94510011241FBECFEFD8E026
:10007000DEBFCDBF11E0A0E0B1E0E2E1F2E002C0FE
:1000800005900D92A030B107D9F711E0A0E0B1E0E2
:1000900001C01D92A930B107E1F70E946C000C94D9
:1000A00007010C9400001F9314E21BB981E285B98B
:1000B00084E690E00E94BF001BB981E185B984E627
:1000C00090E00E94BF001BB989E085B984E690E00A
:1000D0000E94BF001F9108950E94CD008AB18C6FCD
:1000E0008AB984B18F6384B90E945300FDCF1F92F7
:1000F0000F920FB60F9211242F933F938F939F93DC
:10010000AF93BF938091040190910501A0910601E6
:10011000B0910701309108010196A11DB11D232F57
:100120002D5F2D3720F02D570196A11DB11D209375
:1001300008018093040190930501A0930601B093F8
:1001400007018091000190910101A0910201B091FD
:1001500003010196A11DB11D80930001909301013F
:10016000A0930201B0930301BF91AF919F918F9132
:100170003F912F910F900FBE0F901F9018950197F0
:1001800059F0FC01EE0FFF1FEE0FFF1F32978FB7E4
:10019000F8943197F1F78FBF0895789484B5826011
:1001A00084BD84B5816084BD85B5826085BD85B51B
:1001B000816085BDEEE6F0E0808181608083E1E8CA
:1001C000F0E0808182608083808181608083E0E8CC
:1001D000F0E0808181608083E1EBF0E080818460E9
:1001E0008083E0EBF0E0808181608083EAE7F0E0EB
:1001F000808184608083808182608083808181604F
:1002000080838081806880831092C1000895F89473
:02021000FFCF1E
:00000001FF
