:100000000C9434000C9451000C9451000C94510049
:100010000C9451000C9451000C9451000C9451001C
:100020000C9451000C9451000C9451000C9451000C
:100030000C9451000C9451000C9451000C945100FC
:100040000C94EB010C9451000C9451000C94510051
:100050000C9451000C9451000C9451000C945100DC
:100060000C9451000C94510011241FBECFEFD8E026
:10007000DEBFCDBF11E0A0E0B1E0E2E3F5E002C0F9
:1000800005900D92A030B107D9F711E0A0E0B1E0E2
:1000900001C01D92A930B107E1F70E94E0010C9464
:1000A00097020C940000AF92BF92CF92DF92EF9232
:1000B000FF920F931F9324E2E22EEBB899E3F92EFF
:1000C000F5B86CE271E080E090E00E94330208E451
:1000D0000BB91AE315B96CE271E080E090E00E9480
:1000E000330280E98BB98CE3A82EA5B86CE271E0ED
:1000F00080E090E00E9433020BB915B96CE271E028
:1001000080E090E00E943302EBB8F5B86CE271E059
:1001100080E090E00E9433020BB915B96CE271E007
:1001200080E090E00E943302B0E5BB2EBBB8F5B88A
:100130006CE271E080E090E00E943302A0EECA2EF3
:10014000CBB8F8E3DF2ED5B86CE271E080E090E048
:100150000E943302E4E4EE2EEBB8A5B86CE271E045
:1001600080E090E00E9433020BB915B96CE271E0B7
:1001700080E090E00E943302BBB8F5B86CE271E019
:1001800080E090E00E943302CBB8D5B864E670E01E
:1001900080E090E00E943302EBB8A5B864E670E01E
:1001A00080E090E00E9433020BB915B964E670E07C
:1001B00080E090E00E943302BBB8F5B864E670E0DE
:1001C00080E090E00E943302CBB8D5B864E670E0DE
:1001D00080E090E00E943302EBB8A5B864E670E0DE
:1001E00080E090E00E9433020BB915B964E670E03C
:1001F00080E090E00E943302BBB8F5B864E670E09E
:1002000080E090E00E943302CBB8D5B864E670E09D
:1002100080E090E00E943302EBB8A5B864E670E09D
:1002200080E090E00E9433020BB915B964E670E0FB
:1002300080E090E00E943302BBB8F5B864E670E05D
:1002400080E090E00E943302CBB8D5B868EE73E04E
:1002500080E090E00E94330200E010E07CEFE72EA7
:1002600067E1F62ECBB8D5B861E070E080E090E0B1
:100270000E943302EBB8F5B861E070E080E090E0F6
:100280000E9433020F5F1F4F0639110559F700E036
:1002900010E05CE1F52E47E2B42E30EEC32E20E1F3
:1002A000D22E9FE0E92EFBB8B5B861E070E080E0A7
:1002B00090E00E943302CBB8D5B861E070E080E0F6
:1002C00090E00E943302FBB8E5B861E070E080E0A6
:1002D00090E00E9433020F5F1F4F0B34110519F796
:1002E00000E010E080EEC82EB8E3DB2EACEFEA2E83
:1002F000F7E1FF2ECBB8D5B861E070E080E090E088
:100300000E943302EBB8F5B861E070E080E090E065
:100310000E9433020F5F1F4F0639110559F700E0A5
:1003200010E0ECE1FE2E77E2B72E60EEC62E50E133
:10033000D52E4FE0E42EFBB8B5B861E070E080E068
:1003400090E00E943302CBB8D5B861E070E080E065
:1003500090E00E943302FBB8E5B861E070E080E015
:1003600090E00E9433020F5F1F4F0B34110519F705
:1003700000E010E030EEC32E28E3D22E9CEFE92EF1
:1003800087E1F82ECBB8D5B861E070E080E090E06E
:100390000E943302EBB8F5B861E070E080E090E0D5
:1003A0000E9433020F5F1F4F0639110559F71F9145
:1003B0000F91FF90EF90DF90CF90BF90AF90089596
:1003C0000E945D028AB18C6F8AB984B18F6384B94F
:1003D0000E945300FDCF1F920F920FB60F9211246F
:1003E0002F933F938F939F93AF93BF93809104017B
:1003F00090910501A0910601B0910701309108018B
:100400000196A11DB11D232F2D5F2D3720F02D57F3
:100410000196A11DB11D20930801809304019093C2
:100420000501A0930601B09307018091000190910E
:100430000101A0910201B09103010196A11DB11D1E
:100440008093000190930101A0930201B0930301F6
:10045000BF91AF919F918F913F912F910F900FBEC0
:100460000F901F901895EF92FF920F931F937B01AF
:100470008C018FB7F894409104015091050160916F
:100480000601709107018FBF2FB7F8948091040186
:1004900090910501A0910601B09107012FBF841B27
:1004A000950BA60BB70BE816F9060A071B0760F7B2
:1004B0001F910F91FF90EF900895789484B582601A
:1004C00084BD84B5816084BD85B5826085BD85B5F8
:1004D000816085BDEEE6F0E0808181608083E1E8A7
:1004E000F0E0808182608083808181608083E0E8A9
:1004F000F0E0808181608083E1EBF0E080818460C6
:100500008083E0EBF0E0808181608083EAE7F0E0C7
:10051000808184608083808182608083808181602B
:1005200080838081806880831092C1000895F89450
:02053000FFCFFB
:00000001FF
