:100000000C9461000C947E000C947E000C947E0095
:100010000C947E000C947E000C947E000C947E0068
:100020000C947E000C947E000C947E000C947E0058
:100030000C947E000C947E000C947E000C947E0048
:100040000C9493010C947E000C947E000C947E0022
:100050000C947E000C947E000C947E000C947E0028
:100060000C947E000C947E00000000002400270009
:100070002A0000000000250028002B0000000000DE
:1000800023002600290004040404040404040202DA
:100090000202020203030303030301020408102007
:1000A0004080010204081020010204081020000012
:1000B0000007000201000003040600000000000029
:1000C000000011241FBECFEFD8E0DEBFCDBF11E08E
:1000D000A0E0B1E0ECE5F5E002C005900D92AC3097
:1000E000B107D9F711E0ACE0B1E001C01D92A53134
:1000F000B107E1F70E948C010C94AC020C94000053
:100100008091040160E00E945F028091060160E03E
:100110000E945F028091080160E00E945F0280916E
:100120000A0160E00E945F028091000161E00E948C
:100130005F028091020160E00E945F0280910401F1
:1001400061E00E945F0264E670E080E090E00E945F
:10015000DB018091060161E00E945F0264E670E0CD
:1001600080E090E00E94DB018091080161E00E9444
:100170005F0264E670E080E090E00E94DB01809125
:100180000A0161E00E945F0264E670E080E090E0B6
:100190000E94DB018091040160E00E945F0264E63E
:1001A00070E080E090E00E94DB018091060160E059
:1001B0000E945F0264E670E080E090E00E94DB0154
:1001C0008091080160E00E945F0264E670E080E0D8
:1001D00090E00E94DB0180910A0160E00E945F02D2
:1001E00064E670E080E090E00E94DB018091040111
:1001F00060E00E945F028091060160E00E945F0261
:100200008091080160E00E945F0280910A0160E035
:100210000E945F028091000160E00E945F02809175
:10022000020161E00E945F028091040161E00E948E
:100230005F0264E670E080E090E00E94DB01809164
:10024000060161E00E945F0264E670E080E090E0F9
:100250000E94DB018091080161E00E945F0264E678
:1002600070E080E090E00E94DB0180910A0161E093
:100270000E945F0264E670E080E090E00E94DB0193
:100280008091040160E00E945F0264E670E080E01B
:1002900090E00E94DB018091060160E00E945F0215
:1002A00064E670E080E090E00E94DB01809108014C
:1002B00060E00E945F0264E670E080E090E00E94EF
:1002C000DB0180910A0160E00E945F0264E670E059
:1002D00080E090E00E94DB0108958091000161E0E0
:1002E0000E943F028091020161E00E943F028091E2
:1002F000040161E00E943F028091060161E00E94DA
:100300003F028091080161E00E943F0280910A0152
:1003100061E00E943F0208950E9405020E946D0163
:100320000E948000FDCF1F920F920FB60F921124F2
:100330002F933F938F939F93AF93BF93809110011F
:1003400090911101A0911201B0911301309114010B
:100350000196A11DB11D232F2D5F2D3720F02D57A4
:100360000196A11DB11D209314018093100190935B
:100370001101A0931201B093130180910C0190918F
:100380000D01A0910E01B0910F010196A11DB11DAB
:1003900080930C0190930D01A0930E01B0930F0177
:1003A000BF91AF919F918F913F912F910F900FBE71
:1003B0000F901F901895EF92FF920F931F937B0160
:1003C0008C018FB7F8944091100150911101609108
:1003D0001201709113018FBF2FB7F8948091100113
:1003E00090911101A0911201B09113012FBF841BB4
:1003F000950BA60BB70BE816F9060A071B0760F763
:100400001F910F91FF90EF900895789484B58260CA
:1004100084BD84B5816084BD85B5826085BD85B5A8
:10042000816085BDEEE6F0E0808181608083E1E857
:10043000F0E0808182608083808181608083E0E859
:10044000F0E0808181608083E1EBF0E08081846076
:100450008083E0EBF0E0808181608083EAE7F0E078
:1004600080818460808380818260808380818160DC
:1004700080838081806880831092C1000895282F36
:1004800030E0C90186569F4FFC0194912A573F4F97
:10049000F9018491882391F0E82FF0E0EE0FFF1F1F
:1004A000E859FF4FA591B491662329F48C9190955A
:1004B00089238C9308958C91892B8C930895482FD0
:1004C00050E0CA0182559F4FFC012491CA01865613
:1004D0009F4FFC0194914A575F4FFA0134913323A7
:1004E000D1F1222331F1233021F4809180008F77E4
:1004F00005C0243031F4809180008F7D809380008E
:1005000018C0213019F484B58F7704C0223021F44B
:1005100084B58F7D84BD0DC0263021F48091B0005C
:100520008F7705C0273029F48091B0008F7D8093AC
:10053000B000E32FF0E0EE0FFF1FEE58FF4FA59144
:10054000B491662329F48C91909589238C93089516
:0C0550008C91892B8C930895F894FFCFB8
:0C055C0002000300040005000600070078
:00000001FF
