:100000000C9461000C947E000C947E000C947E0095
:100010000C947E000C947E000C947E000C947E0068
:100020000C947E000C947E000C947E000C947E0058
:100030000C947E000C947E000C947E000C947E0048
:100040000C9412010C947E000C947E000C947E00A3
:100050000C947E000C947E000C947E000C947E0028
:100060000C947E000C947E00000000002400270009
:100070002A0000000000250028002B0000000000DE
:1000800023002600290004040404040404040202DA
:100090000202020203030303030301020408102007
:1000A0004080010204081020010204081020000012
:1000B0000007000201000003040600000000000029
:1000C000000011241FBECFEFD8E0DEBFCDBF11E08E
:1000D000A0E0B1E0ECE0F5E002C005900D92AC309C
:1000E000B107D9F711E0ACE0B1E001C01D92A73132
:1000F000B107E1F70E940B010C9484020C940000FC
:1001000080910C0190910D01019690930D018093C7
:100110000C018F3F9105ACF4809100019091010199
:1001200001979093010180930001809102019091C9
:1001300003010196909303018093020181E090E016
:1001400018C021E08D3F9207CCF481E090E09093BD
:1001500001018093000180910201909103010197B8
:100160009093030180930201809104019091050115
:10017000019690930501809304011EC08B5F92400D
:10018000ACF48091000190910101019690930101DE
:100190008093000181E090E090930301809302013D
:1001A00080910401909105010197E3CF81E090E0F7
:1001B00090930D0180930C016091000170910101F9
:1001C000809106010E94BE016091020170910301BD
:1001D000809108010E94BE016091040170910501A7
:1001E00080910A010E94BE0162E370E080E090E02D
:1001F0000E945A0108958091060161E00E94170251
:100200008091080161E00E94170280910A0161E07B
:100210000E94170208950E9484010E94FB000E9420
:100220008000FDCF1F920F920FB60F9211242F93D3
:100230003F938F939F93AF93BF93809112019091BF
:100240001301A0911401B09115013091160101968E
:10025000A11DB11D232F2D5F2D3720F02D570196A5
:10026000A11DB11D209316018093120190931301DB
:10027000A0931401B093150180910E0190910F018C
:10028000A0911001B09111010196A11DB11D8093A3
:100290000E0190930F01A0931001B0931101BF9133
:1002A000AF919F918F913F912F910F900FBE0F9023
:1002B0001F901895EF92FF920F931F937B018C0173
:1002C0008FB7F8944091120150911301609114017D
:1002D000709115018FBF2FB7F89480911201909102
:1002E0001301A0911401B09115012FBF841B950B30
:1002F000A60BB70BE816F9060A071B0760F71F9154
:100300000F91FF90EF900895789484B5826084BD3A
:1003100084B5816084BD85B5826085BD85B5816009
:1003200085BDEEE6F0E0808181608083E1E8F0E069
:10033000808182608083808181608083E0E8F0E05A
:10034000808181608083E1EBF0E080818460808344
:10035000E0EBF0E0808181608083EAE7F0E080817B
:1003600084608083808182608083808181608083DB
:100370008081806880831092C10008951F93CF937D
:10038000DF93182FEB0161E00E941702E12FF0E0EC
:10039000E255FF4F8491833051F480918000806852
:1003A00080938000D0938900C09388003CC0843043
:1003B00051F480918000806280938000D0938B0004
:1003C000C0938A0030C0813039F4209729F184B578
:1003D000806884BDC7BD27C0823039F42097E1F022
:1003E00084B5806284BDC8BD1EC0863041F4809152
:1003F000B00080688093B000C093B30014C0873011
:1004000041F48091B00080628093B000C093B4004A
:100410000AC0C038D1051CF4812F60E002C0812FD2
:1004200061E00E943702DF91CF911F910895282F3C
:1004300030E0C90186569F4FFC0194912A573F4FE7
:10044000F9018491882391F0E82FF0E0EE0FFF1F6F
:10045000E859FF4FA591B491662329F48C919095AA
:1004600089238C9308958C91892B8C930895482F20
:1004700050E0CA0182559F4FFC012491CA01865663
:100480009F4FFC0194914A575F4FFA0134913323F7
:10049000D1F1222331F1233021F4809180008F7734
:1004A00005C0243031F4809180008F7D80938000DE
:1004B00018C0213019F484B58F7704C0223021F49C
:1004C00084B58F7D84BD0DC0263021F48091B000AD
:1004D0008F7705C0273029F48091B0008F7D8093FD
:1004E000B000E32FF0E0EE0FFF1FEE58FF4FA59195
:1004F000B491662329F48C91909589238C93089567
:0C0500008C91892B8C930895F894FFCF08
:0C050C00FF000100010009000A000B00C4
:00000001FF
