:100000000C9461000C947E000C947E000C947E0095
:100010000C947E000C947E000C947E000C947E0068
:100020000C947E000C947E000C947E000C947E0058
:100030000C947E000C947E000C947E000C947E0048
:100040000C94ED000C947E000C947E000C947E00C9
:100050000C947E000C947E000C947E000C947E0028
:100060000C947E000C947E00000000002400270009
:100070002A0000000000250028002B0000000000DE
:1000800023002600290004040404040404040202DA
:100090000202020203030303030301020408102007
:1000A0004080010204081020010204081020000012
:1000B0000007000201000003040600000000000029
:1000C000000011241FBECFEFD8E0DEBFCDBF11E08E
:1000D000A0E0B1E0EAE5F4E002C005900D92A6319F
:1000E000B107D9F711E0A6E1B1E001C01D92AF312F
:1000F000B107E1F70E94E6000C942B020C9400007B
:100100000F931F93CF93DF93C6E0D1E047C0809158
:10011000020160E00E949D01809100016091040154
:1001200041E028810E94EA01809100016091040170
:1001300041E02A810E94EA018091020161E00E946F
:100140009D018CED95E00E9435018091020160E0F7
:100150000E949D01809100016091040141E020E036
:100160000E94EA01809100016091040141E020E0D9
:100170000E94EA018091020161E00E949D0185E0F8
:1001800090E00E9435010F5F1F4F0233110509F007
:10019000BECF249681E0C631D80719F000E010E008
:1001A000B6CFDF91CF911F910F91089580910201F9
:1001B00061E00E947D018091040161E00E947D0167
:1001C0008091000161E00E947D0108950E94430139
:1001D0000E94D6000E948000FDCF1F920F920FB6A2
:1001E0000F9211242F933F938F939F93AF93BF93BD
:1001F00080911A0190911B01A0911C01B0911D01E9
:1002000030911E010196A11DB11D232F2D5F2D37A9
:1002100020F02D570196A11DB11D20931E01809342
:100220001A0190931B01A0931C01B0931D018091B2
:10023000160190911701A0911801B0911901019632
:10024000A11DB11D8093160190931701A093180171
:10025000B0931901BF91AF919F918F913F912F91D1
:100260000F900FBE0F901F901895019759F0FC0149
:10027000EE0FFF1FEE0FFF1F32978FB7F8943197E5
:10028000F1F78FBF0895789484B5826084BD84B5FA
:10029000816084BD85B5826085BD85B5816085BD81
:1002A000EEE6F0E0808181608083E1E8F0E080812B
:1002B00082608083808181608083E0E8F0E08081DB
:1002C00081608083E1EBF0E0808184608083E0EBFB
:1002D000F0E0808181608083EAE7F0E080818460E3
:1002E000808380818260808380818160808380813F
:1002F000806880831092C1000895282F30E0C901E2
:1003000086569F4FFC0194912A573F4FF9018491E3
:10031000882391F0E82FF0E0EE0FFF1FE859FF4F20
:10032000A591B491662329F48C91909589238C939F
:1003300008958C91892B8C930895482F50E0CA0121
:1003400082559F4FFC012491CA0186569F4FFC01A4
:1003500094914A575F4FFA0134913323D1F122230C
:1003600031F1233021F4809180008F7705C0243053
:1003700031F4809180008F7D8093800018C02130FF
:1003800019F484B58F7704C0223021F484B58F7DB1
:1003900084BD0DC0263021F48091B0008F7705C058
:1003A000273029F48091B0008F7D8093B000E32F37
:1003B000F0E0EE0FFF1FEE58FF4FA591B4916623BA
:1003C00029F48C91909589238C9308958C91892B95
:1003D0008C930895BF92CF92DF92EF92FF920F938A
:1003E0001F93CF93DF93E82EF62EB42EC0E0D0E01B
:1003F000022F10E087E0C82ED12CBB2041F4B801B9
:100400000C2E02C0759567950A94E2F70AC0B601F2
:100410006C1B7D0BC80102C0959587956A95E2F724
:10042000BC0161708E2D0E949D018F2D61E00E94A4
:100430009D018F2D60E00E949D012196C830D1055D
:10044000E1F6DF91CF911F910F91FF90EF90DF9038
:0A045000CF90BF900895F894FFCFFD
:10045A000B000C000D000300FF000500FF0009005F
:06046A00FF000500FF0089
:00000001FF
