:100000000C9434000C9451000C9451000C94510049
:100010000C9451000C9451000C9451000C9451001C
:100020000C9451000C9451000C9451000C9451000C
:100030000C9451000C9451000C9451000C945100FC
:100040000C949D000C9451000C9451000C945100A0
:100050000C9451000C9451000C9451000C945100DC
:100060000C9451000C94510011241FBECFEFD8E026
:10007000DEBFCDBF11E0A0E0B1E0E6E9F2E002C0F2
:1000800005900D92A634B107D9F711E0A6E4B1E0CE
:1000900001C01D92A73DB107E1F70E9496000C94A4
:1000A00049010C9400008AB18C6F8AB930914401E7
:1000B00020914501A0E0B1E0E6E4F1E09D91892FB7
:1000C000807F832B80839295907F922B91833296B1
:1000D00081E0A434B80791F708950F931F93CF934D
:1000E000DF93C6E4D1E01AC088818BB961E070E08B
:1000F00080E090E00E94E50089818BB961E070E0CA
:1001000080E090E00E94E5000F5F1F4F0233110571
:1001100059F7229681E0CE3CD80719F000E010E0B4
:10012000E3CFDF91CF911F910F9108950E940F01AE
:100130000E9453000E946D00FDCF1F920F920FB6D8
:100140000F9211242F933F938F939F93AF93BF935D
:100150008091D2019091D301A091D401B091D501A9
:100160003091D6010196A11DB11D232F2D5F2D3792
:1001700020F02D570196A11DB11D2093D60180932B
:10018000D2019093D301A093D401B093D501809173
:10019000CE019091CF01A091D001B091D1010196F3
:1001A000A11DB11D8093CE019093CF01A093D001EA
:1001B000B093D101BF91AF919F918F913F912F91BA
:1001C0000F900FBE0F901F901895EF92FF920F9314
:1001D0001F937B018C018FB7F8944091D20150910D
:1001E000D3016091D4017091D5018FBF2FB7F894DE
:1001F0008091D2019091D301A091D401B091D50109
:100200002FBF841B950BA60BB70BE816F9060A0740
:100210001B0760F71F910F91FF90EF90089578945E
:1002200084B5826084BD84B5816084BD85B58260FB
:1002300085BD85B5816085BDEEE6F0E08081816099
:100240008083E1E8F0E0808182608083808181604A
:100250008083E0E8F0E0808181608083E1EBF0E082
:10026000808184608083E0EBF0E080818160808326
:10027000EAE7F0E08081846080838081826080830F
:100280008081816080838081806880831092C1003A
:060290000895F894FFCF71
:1002960033CCF00FC33CCC6633112221CCC3F03CE7
:1002A6000F142841821428418214284182142841BF
:1002B600333C0F33F0C3333C00FF00FFF00FCFF3A6
:1002C600F0C3333CFFFF0000FFFFFFFF00FFFFFF0F
:0602D60000FF0000040817
:00000001FF
