:100000000C9435000C945D000C945D000C945D0024
:100010000C945D000C945D000C945D000C945D00EC
:100020000C945D000C945D000C945D000C945D00DC
:100030000C945D000C945D000C945D000C945D00CC
:100040000C94B1000C945D000C945D010C945D0067
:100050000C945D000C945D000C945D000C945D00AC
:100060000C945D000C945D00A60211241FBECFEF1E
:10007000D8E0DEBFCDBF11E0A0E0B1E0E4E4F7E0FE
:1000800002C005900D92A831B107D9F711E0A8E19F
:10009000B1E001C01D92A03DB107E1F710E0CAE652
:1000A000D0E004C02297FE010E949C03C836D1070D
:1000B000C9F70E94AA000C94A0030C9400000F93AF
:1000C0001F93CF93DF93C8E1D1E01AC088818BB929
:1000D00061E070E080E090E00E94F90089818BB9D6
:1000E00061E070E080E090E00E94F9000F5F1F4F38
:1000F0000436110559F7229681E0C033D80719F06C
:1001000000E010E0E3CFDF91CF911F910F910895B0
:100110008AB18C6F8AB98DEB91E040E855E260E0DE
:1001200070E00E949A0130910C0120910D01A0E035
:10013000B1E0E8E1F1E09D91892F807F832B8083FE
:100140009295907F922B9183329681E0AC30B807E4
:1001500091F708950E9423010E9488000E945F0089
:10016000FDCF1F920F920FB60F9211242F933F9342
:100170008F939F93AF93BF938091340190913501FA
:10018000A0913601B0913701309138010196A11D3F
:10019000B11D232F2D5F2D3720F02D570196A11D66
:1001A000B11D209338018093340190933501A093C1
:1001B0003601B09337018091300190913101A091C7
:1001C0003201B09133010196A11DB11D8093300120
:1001D00090933101A0933201B0933301BF91AF915D
:1001E0009F918F913F912F910F900FBE0F901F9075
:1001F0001895EF92FF920F931F937B018C018FB79D
:10020000F89440913401509135016091360170911C
:1002100037018FBF2FB7F894809134019091350149
:10022000A0913601B09137012FBF841B950BA60B0F
:10023000B70BE816F9060A071B0760F71F910F9125
:10024000FF90EF900895789484B5826084BD84B562
:10025000816084BD85B5826085BD85B5816085BDC1
:10026000EEE6F0E0808181608083E1E8F0E080816B
:1002700082608083808181608083E0E8F0E080811B
:1002800081608083E1EBF0E0808184608083E0EB3B
:10029000F0E0808181608083EAE7F0E08081846023
:1002A000808380818260808380818160808380817F
:1002B000806880831092C10008951F920F920FB63C
:1002C0000F9211242F933F934F935F936F937F93DC
:1002D0008F939F93AF93BF93EF93FF934091C6008B
:1002E000E091B901F091BA01CF01019660E870E0A8
:1002F0000E9436039C018091BB019091BC0128179C
:10030000390739F0E75CFE4F40833093BA01209300
:10031000B901FF91EF91BF91AF919F918F917F9123
:100320006F915F914F913F912F910F900FBE0F9062
:100330001F9018955F926F927F928F929F92AF92CB
:10034000BF92CF92DF92EF92FF920F931F93CF93C2
:10035000DF93EC013A014B01413482E458078FE00E
:10036000680780E078070CF07FC060E874E88EE1F1
:1003700090E0A40193010E946B0321503040404063
:100380005040CA01B90122E030E040E050E00E9454
:100390006B0359016A01A60195012095309540959E
:1003A000509594E0220F331F441F551F9A95D1F7A3
:1003B00060E074E284EF90E00E946B03CA01B9012F
:1003C0002FEF30E040E050E00E941703A4019301BA
:1003D0000E946B03C90181509F4F181619061CF427
:1003E000522E5A9403C055245394521A60E079E077
:1003F0008DE390E0A40193010E946B0321503040F3
:1004000040405040CA01B90122E030E040E050E0F5
:100410000E946B03209530954095509583E0220F04
:10042000331F441F551F8A95D1F760E074E284EFB3
:1004300090E00E946B03CA01B9012FEF30E040E069
:1004400050E00E941703A40193010E946B03C901AD
:1004500081509F4F181619061CF4822F815002C03C
:1004600081E0821B851500F5E885F98581E090E043
:100470000A8802C0880F991F0A94E2F7808360E01F
:1004800079E08DE390E0A40193010E946B03215079
:10049000304040405040CA01B90122E030E040E025
:1004A00050E00E946B0304C0E885F9851082950135
:1004B000EC81FD813083EE81FF812083EA85FB851D
:1004C000208141E050E0CA010E8402C0880F991FCC
:1004D0000A94E2F7282B2083EA85FB852081CA0154
:1004E0000F8402C0880F991F0A94E2F7282B2083FB
:1004F000EA85FB858081088802C0440F551F0A9455
:10050000E2F7842B8083DF91CF911F910F91FF90B1
:10051000EF90DF90CF90BF90AF909F908F907F90A3
:100520006F905F900895FC01A085B18521898C9121
:1005300090E0022E02C0959587950A94E2F780FF1D
:10054000F6CF0484F585E02D6083089582E191E083
:100550009093BE018093BD0189E391E09093C00127
:100560008093BF0185EC90E09093C2018093C1011C
:1005700084EC90E09093C4018093C30180EC90E000
:100580009093C6018093C50181EC90E09093C801DF
:100590008093C70186EC90E09093CA018093C901D3
:1005A00084E08093CB0183E08093CC0187E080934B
:1005B000CD0185E08093CE0181E08093CF01089545
:1005C0000F931F93CF93DF938C01EB0109C021960A
:1005D000D801ED91FC910190F081E02DC8010995C1
:1005E00068816623A1F7DF91CF911F910F91089544
:1005F000EF92FF920F931F93CF93DF938C017B01B8
:10060000EA010CC0D7016D917D01D801ED91FC91FB
:100610000190F081E02DC80109952197209791F76D
:10062000DF91CF911F910F91FF90EF900895629FFE
:10063000D001739FF001829FE00DF11D649FE00DDA
:10064000F11D929FF00D839FF00D749FF00D659F3B
:10065000F00D9927729FB00DE11DF91F639FB00D3A
:10066000E11DF91FBD01CF011124089597FB092E4B
:1006700007260AD077FD04D049D006D000201AF40E
:10068000709561957F4F0895F6F7909581959F4FEE
:100690000895A1E21A2EAA1BBB1BFD010DC0AA1FC3
:1006A000BB1FEE1FFF1FA217B307E407F50720F0DB
:1006B000A21BB30BE40BF50B661F771F881F991F56
:1006C0001A9469F760957095809590959B01AC019F
:1006D000BD01CF01089597FB092E05260ED057FDC9
:1006E00004D0D7DF0AD0001C38F4509540953095DF
:1006F00021953F4F4F4F5F4F0895F6F790958095A6
:10070000709561957F4F8F4F9F4F0895AA1BBB1B1C
:1007100051E107C0AA1FBB1FA617B70710F0A61B01
:10072000B70B881F991F5A95A9F780959095BC0122
:10073000CD010895EE0FFF1F0590F491E02D09946F
:04074000F894FFCF5B
:1007440033CCF00FC33CCC663311222104080000E3
:0807540000009302E002F8022C
:00000001FF
