:100000000C9461000C947E000C947E000C947E0095
:100010000C947E000C947E000C947E000C947E0068
:100020000C947E000C947E000C947E000C947E0058
:100030000C947E000C947E000C947E000C947E0048
:100040000C94BA000C947E000C947E000C947E00FC
:100050000C947E000C947E000C947E000C947E0028
:100060000C947E000C947E00000000002400270009
:100070002A0000000000250028002B0000000000DE
:1000800023002600290004040404040404040202DA
:100090000202020203030303030301020408102007
:1000A0004080010204081020010204081020000012
:1000B0000007000201000003040600000000000029
:1000C000000011241FBECFEFD8E0DEBFCDBF11E08E
:1000D000A0E0B1E0ECE2F4E002C005900D92AE3297
:1000E000B107D9F711E0AEE2B1E001C01D92A7332C
:1000F000B107E1F70E94B3000C9414020C940000C5
:10010000CF93DF93C6E0D1E08091000160E00E94D0
:100110008601809104016091020141E029910E94D1
:10012000D3018091000161E00E94860160E570E0EA
:1001300080E090E00E94020181E0CE32D80721F7F2
:10014000DF91CF9108958091000161E00E946601E6
:100150008091020161E00E9466018091040161E0EA
:100160000E94660108950E942C010E94A3000E9433
:100170008000FDCF1F920F920FB60F9211242F9384
:100180003F938F939F93AF93BF9380913201909150
:100190003301A0913401B0913501309136010196BF
:1001A000A11DB11D232F2D5F2D3720F02D57019656
:1001B000A11DB11D2093360180933201909333012C
:1001C000A0933401B093350180912E0190912F01BD
:1001D000A0913001B09131010196A11DB11D809314
:1001E0002E0190932F01A0933001B0933101BF9164
:1001F000AF919F918F913F912F910F900FBE0F90D4
:100200001F901895EF92FF920F931F937B018C0123
:100210008FB7F894409132015091330160913401CD
:10022000709135018FBF2FB7F89480913201909172
:100230003301A0913401B09135012FBF841B950B80
:10024000A60BB70BE816F9060A071B0760F71F9104
:100250000F91FF90EF900895789484B5826084BDEB
:1002600084B5816084BD85B5826085BD85B58160BA
:1002700085BDEEE6F0E0808181608083E1E8F0E01A
:10028000808182608083808181608083E0E8F0E00B
:10029000808181608083E1EBF0E0808184608083F5
:1002A000E0EBF0E0808181608083EAE7F0E080812C
:1002B000846080838081826080838081816080838C
:1002C0008081806880831092C1000895282F30E0DB
:1002D000C90186569F4FFC0194912A573F4FF9015F
:1002E0008491882391F0E82FF0E0EE0FFF1FE8598A
:1002F000FF4FA591B491662329F48C9190958923A1
:100300008C9308958C91892B8C930895482F50E0FD
:10031000CA0182559F4FFC012491CA0186569F4F06
:10032000FC0194914A575F4FFA0134913323D1F184
:10033000222331F1233021F4809180008F7705C092
:10034000243031F4809180008F7D8093800018C02C
:10035000213019F484B58F7704C0223021F484B59C
:100360008F7D84BD0DC0263021F48091B0008F7741
:1003700005C0273029F48091B0008F7D8093B000B4
:10038000E32FF0E0EE0FFF1FEE58FF4FA591B49161
:10039000662329F48C91909589238C9308958C91F0
:1003A000892B8C930895BF92CF92DF92EF92FF92A8
:1003B0000F931F93CF93DF93E82EF62EB42EC0E059
:1003C000D0E0022F10E087E0C82ED12CBB2041F4F2
:1003D000B8010C2E02C0759567950A94E2F70AC021
:1003E000B6016C1B7D0BC80102C0959587956A9577
:1003F000E2F7BC0161708E2D0E9486018F2D61E0B5
:100400000E9486018F2D60E00E9486012196C830EF
:10041000D105E1F6DF91CF911F910F91FF90EF9001
:0C042000DF90CF90BF900895F894FFCFBC
:10042C0008000C000B0081C3E7FFFFE7C3810080CD
:10043C00C0E0F0F8FCFEFFFEFCF8F0E0C0800040ED
:0E044C00201008040204081020408081810066
:00000001FF
